:020000040800F2
:10000000405300200D0300085D2C00086B2A0008F7
:10001000EF2B0008290A00083D3800080000000006
:100020000000000000000000000000004D02000879
:10003000190C000800000000A9020008E7300008C1
:1000400027030008270300082703000827030008E8
:1000500027030008270300082703000827030008D8
:1000600027030008270300082703000827030008C8
:1000700027030008270300082703000827030008B8
:1000800027030008270300082703000827030008A8
:100090002D0A00083D0A000827030008270300086E
:1000A00027030008CD3100082703000827030008B4
:1000B0002703000827030008270300082703000878
:1000C0002703000827030008270300082703000868
:1000D0002703000827030008270300082703000858
:1000E0002703000827030008270300082703000848
:1000F0002703000827030008270300082703000838
:100100002703000827030008270300082703000827
:100110002703000827030008270300082703000817
:100120002703000827030008270300082703000807
:1001300027030008270300082703000827030008F7
:1001400027030008270300082703000827030008E7
:100150002703000827030008270300082D3800089C
:1001600027030008270300082703000827030008C7
:1001700027030008270300082703000800000000E9
:1001800027030008270300082703000827030008A7
:100190002703000827030008270300082703000897
:1001A00000000000000000002703000800F002F833
:1001B00000F03CF80AA090E8000C82448344AAF1C5
:1001C0000107DA4501D100F031F8AFF2090EBAE8C3
:1001D0000F0013F0010F18BFFB1A43F0010318477B
:1001E000B46F0000D46F0000103A24BF78C878C103
:1001F000FAD8520724BF30C830C144BF04680C602D
:10020000704700000023002400250026103A28BF74
:1002100078C1FBD8520728BF30C148BF0B60704778
:100220001FB506F0F6FE1FBD10B510BD00F0E4F9D5
:100230001146FFF7F5FF04F0D7F900F002FA03B416
:10024000FFF7F2FF03BC00F005FA00002C4B196821
:100250000868B0E8F04F80F30988BFF36F8F4FF064
:10026000000080F311887047000000000848006813
:10027000006880F308884FF0000080F3148862B6AD
:1002800061B6BFF34F8FBFF36F8F00DF00BF00BFBA
:1002900008ED00E0DFF80C00016841F47001016036
:1002A000704700BF88ED00E0EFF30980BFF36F8F68
:1002B000134B1A681EF0100F08BF20ED108A20E9BA
:1002C000F04F106009B44FF0500080F31188BFF375
:1002D0004F8FBFF36F8F05F09BFA4FF0000080F354
:1002E000118809BC19680868B0E8F04F1EF0100FBB
:1002F00008BFB0EC108A80F30988BFF36F8F704796
:100300004C000020EFF3058070470000094880474B
:1003100009480047FEE7FEE7FEE7FEE7FEE7FEE7E7
:10032000FEE7FEE7FEE7FEE704480549054A064BFF
:1003300070470000B9310008AD010008404D0020B1
:1003400040530020404F0020404F002053EA020C51
:1003500000F069802DE9F04B4FF00006002B1FBF25
:10036000B3FA83F503FA05F424FA05F65E4012BFEA
:100370001643B2FA82F502FA05F4C5F120051EBF54
:1003800022FA05FC44EA0C04203556EA044C4FEAF4
:10039000144418BF641C4FF000084FF0000990424D
:1003A00071EB030C39D3002919BFB1FA81F701FAB7
:1003B00007F6B0FA80F700FA07F6C7F120071EBF6C
:1003C00020FA07FC46EA0C062037B6FBF4FCA7EB44
:1003D0000507103F07F01F0BCBF120060CFA0BFBB3
:1003E0002CFA06F644BFB3460026202FA4BF5E4673
:1003F0004FF0000B5BEA060C08BF4FF0010B19EB46
:100400000B09ABFB027C48EB0608C01B06FB02CCC9
:100410000BFB03CC71EB0C01C1E70B4602464146D6
:100420004846BDE8F08B13B54FF000004FF00001D7
:10043000AFF30080BDE81C407047032A40F23080D3
:1004400010F0030C00F0158011F8013BBCF1020F15
:10045000624498BF11F801CB00F8013B38BF11F896
:10046000013BA2F1040298BF00F801CB38BF00F8AD
:10047000013B11F0030300F02580083AC0F008802A
:1004800051F8043B083A51F804CBA0E80810F5E70E
:10049000121D5CBF51F8043B40F8043BAFF30080F1
:1004A000D20724BF11F8013B11F801CB48BF11F866
:1004B000012B24BF00F8013B00F801CB48BF00F836
:1004C000012B704710B5203AC0F00B80B1E81850EE
:1004D000203AA0E81850B1E81850A0E81850BFF42E
:1004E000F5AF5FEA027C24BFB1E81850A0E81850CD
:1004F00044BF18C918C0BDE810405FEA827C24BF21
:1005000051F8043B40F8043B08BF7047D20728BFAE
:1005100031F8023B48BF11F8012B28BF20F8023BFD
:1005200048BF00F8012B704702F0FF0343EA0322A3
:1005300042EA024200F037B84FF0000200B513461D
:1005400094469646203922BFA0E80C50A0E80C50F3
:10055000B1F12001BFF4F7AF090728BFA0E80C50A4
:1005600048BF0CC05DF804EB890028BF40F8042B9D
:1005700008BF704748BF20F8022B11F0804F18BF0A
:1005800000F8012B704770477047704710B500F0B6
:100590002BF8006810BD10B5044600F025F8046083
:1005A00010BD4FF000020429C0F0128010F0030CBF
:1005B0003FF4C4AFCCF1040CBCF1020F18BF00F83B
:1005C000012BA8BF20F8022BA1EB0C01FFF7B6BF4F
:1005D0005FEAC17C24BF00F8012B00F8012B48BF63
:1005E00000F8012B7047000000487047DC4C0020E9
:1005F00000487047DC4C00207546FFF7F9FFAE4617
:1006000005006946534620F00700854618B020B51E
:10061000FFF78AFEBDE820404FF000064FF00007CC
:100620004FF000084FF0000B21F00701AC46ACE89A
:10063000C009ACE8C009ACE8C009ACE8C0098D4607
:10064000704710B50446AFF300802046BDE8104067
:10065000FFF7F5BD01491820ABBEFEE726000200FA
:100660007047000010B540F2FF7340F201226C2188
:100670000D4800F0EBF940F2FF7340F202226421D2
:10068000094800F0E3F940F2FF7340F203225C21D5
:10069000054800F0DBF940F2FF734FF4017254217A
:1006A000014800F0D3F910BDBC01002010B52DEDBC
:1006B000048B9FED3D0AB0EE408AB0EE040AF0EEE6
:1006C000408A9FED3A0AB0EE409A9FED390AF0EE6B
:1006D000409A38499FED385A0020DFED384A9FEDA7
:1006E000374ADFED373A9FED373ADFED372A9FED96
:1006F000372AF0EE691AB0EE491AF0EE680AB0EE49
:10070000480A02F05BFB32499FED2B5A0020DFEDD7
:100710002B4A9FED2A4ADFED2A3A9FED2A3ADFED78
:100720002A2A9FED2A2AF0EE691AB0EE491AF0EE55
:10073000680AB0EE480A02F041FB26499FED1E5AB6
:100740000020DFED1E4A9FED1D4ADFED1D3A9FEDB3
:100750001D3ADFED1D2A9FED1D2AF0EE691AB0EE5D
:10076000491AF0EE680AB0EE480A02F027FB1A496F
:100770009FED115A0020DFED114A9FED104ADFED89
:10078000103A9FED103ADFED102A9FED102AF0EE9F
:10079000691AB0EE491AF0EE680AB0EE480A02F0A3
:1007A0000DFBBDEC048B10BD14AE873E8FC2753CB3
:1007B000CDCCCC3D8C4B00206F12033B00401C463F
:1007C00000409C4500803B460000964400007A446F
:1007D000E04B0020344C0020884C002000B52DED6B
:1007E000048B91B09FED480AB0EE408A9FED460A17
:1007F000F0EE408A9FED440AB0EE409A9FED420A27
:10080000F0EE409A414802F02BFA414802F028FAF3
:10081000404802F025FA404802F022FA44223B49BF
:1008200010316846FFF74EFE38480FC800F0F8F95F
:10083000B0EE408A4422364910316846FFF742FE46
:1008400033480FC800F0ECF9F0EE408A44223149F9
:1008500010316846FFF736FE2E480FC800F0E0F969
:10086000B0EE409A44222C4910316846FFF72AFE28
:1008700029480FC800F0D4F9F0EE409A2748B0F9A3
:10088000000000EE100AB8EEC00A30EE080ABDEE15
:10089000C00A10EE100A00B2204908802048B0F9C2
:1008A000000000EE100AB8EEC00A30EE280ABDEED5
:1008B000C00A10EE100A00B2194908801948B0F9B0
:1008C000000000EE100AB8EEC00A30EE090ABDEED4
:1008D000C00A10EE100A00B2124908801248B0F99E
:1008E000000000EE100AB8EEC00A30EE290ABDEE94
:1008F000C00A10EE100A00B20B49088000F058F848
:1009000011B0BDEC048B00BD000000008C4B00203A
:10091000E04B0020344C0020884C00201C000020BC
:100920001E000020200000202200002010B51848E2
:10093000B0F9020000EE900AF8EEE00AB0EE600AAC
:10094000144802F0C3FB1448B0F9020000EE900A0C
:10095000F8EEE00AB0EE600A104802F0B7FB10486B
:10096000B0F9020000EE900AF8EEE00AB0EE600A7C
:100970000C4802F0ABFB0C48B0F9020000EE900A04
:10098000F8EEE00AB0EE600A084802F09FFB10BDE6
:10099000140100208C4B002038010020E04B002087
:1009A0005C010020344C002080010020884C002095
:1009B00000B593B001204422174911906846FFF713
:1009C00081FD154810380FC802F074FC0220442243
:1009D000124911906846FFF775FD104810380FC88E
:1009E00002F068FC032044220D4911906846FFF78D
:1009F00069FD0B4810380FC802F05CFC042044224B
:100A0000084911906846FFF75DFD064810380FC889
:100A100002F050FC13B000BD9C4B0020F04B0020B6
:100A2000444C0020984C002000BFFEE710B502485F
:100A300000F0F6FA10BD0000BC01002010B502481D
:100A400000F0EEFA10BD0000BC010020F0B58BB044
:100A500007460C4615461E4604F0020080B1E80425
:100A60000190E80004F0030140EA41000290F00424
:100A70000390F00004F0030140EA4100049009E013
:100A800068010190A007400F029070010390A00739
:100A9000400F0490E0100690C4F380000590012000
:100AA000099000200790012008900E200A9001A9CB
:100AB000384600F065F90BB0F0BD000070B5044693
:100AC0000D46204600F043FD2068406940F00200DA
:100AD000216848612068406940F010002168486141
:100AE00003492068884202D102480460456070BD15
:100AF00000640040CC00002070B5054605F11C04E0
:100B00002868A0F2012030B101281CD0022832D080
:100B1000032860D147E06078217840EA012000B2E4
:100B20002F490880E078A17840EA012000B22C49E2
:100B300048806079217940EA012000B22849888004
:100B4000A079C88047E06078217840EA012000B2AF
:100B500024490880E078A17840EA012000B22149C8
:100B600048806079217940EA012000B21D498880DF
:100B7000A079C8802FE06078217840EA012000B297
:100B800019490880E078A17840EA012000B21649AE
:100B900048806079217940EA012000B212498880BA
:100BA000A079C88017E06078217840EA012000B27F
:100BB0000E490880E078A17840EA012000B20B4994
:100BC00048806079217940EA012000B20749888095
:100BD000A079C88000BF00BFFFF7A8FE70BD00006D
:100BE00014010020380100205C0100208001002059
:100BF000F0B587B006460C4617461D460194002006
:100C000002900390049005956B463A4601A9304640
:100C100000F00BF807B0F0BD704772B600BFFEE7FA
:100C20000FB49DED070A04B07047F0B504460D46B9
:100C30001E4694F8207020688368A86800B900E018
:100C400000BF012F01D0022F7CD103F0806030B9AA
:100C500003F0006018B903F08050002873D0C3F38C
:100C60000161022905D9606A40F400006062012038
:100C7000F0BD012088403060A86860B9B5F800C0B8
:100C8000E86840EA4C5C206800F5C07000EB011099
:100C9000C0F800C00FE0D5E901C040EACC00D5F8AB
:100CA0000CC040EA0C00D4F800C00CF5C07C0CEB82
:100CB000011CCCF80000D5F810C0206800F5C07009
:100CC00000EB0110C0F804C0287D01280ED1206877
:100CD00000F5C07000EB0110406840F4807C206893
:100CE00000F5C07000EB0110C0F804C0D079000618
:100CF00092F806C040EA0C4092F805C040EA0C2C7D
:100D000010794CEA000C206800F5C07000EB01106F
:100D1000C0F80CC0D078000692F802C040EA0C403F
:100D200092F801C040EA0C2092F800C040EA0C00A2
:100D3000D4F800C00CF5C07C0CEB011CCCF808000A
:100D4000206801E016E00FE000F5C07000EB011034
:100D5000006840F0010C206800F5C07000EB011045
:100D6000C0F800C0002083E7606A40F400106062B1
:100D700001207DE7606A40F480206062012077E70F
:100D8000F0B504460A46216894F82050012D01D0A0
:100D9000022D7ED1424901F50071086840F0010042
:100DA0000860086820F47C5008600868566A40EAC9
:100DB00006200860107D00F01F06012000FA06F3EF
:100DC000C8699843C861A1F50071D069C8B9D1F864
:100DD0000C029843C1F80C02908880B2968940EAD0
:100DE000064601F51070576940F83760108880B2E8
:100DF000168940EA064601F51070576900EBC700F6
:100E00004660D069012819D1D1F80C021843C1F805
:100E10000C02908880B2168840EA064601F51070F0
:100E2000576940F83760908980B2168940EA0646D3
:100E300001F51070576900EBC7004660906928B94A
:100E4000D1F804029843C1F8040204E0D1F8040286
:100E50001843C1F80402106928B9D1F81402984364
:100E6000C1F8140204E0D1F814021843C1F81402C6
:100E7000106A012804D1D1F81C021843C1F81C02E1
:100E8000D1F8000220F00100C1F800020020F0BDFE
:100E9000FFE7606A40F4802060620120F7E700000D
:100EA00000640040704770B5044694F82050012D4E
:100EB00001D0022D7DD151B92068C06800F0030037
:100EC00080B9606A40F400106062012070BD206843
:100ED000006900F0030028B9606A40F40010606205
:100EE0000120F3E7206800F5D87000EB01100068DE
:100EF00000F004009060906840B9206800F5D87058
:100F000000EB01100068400D106007E0206800F55C
:100F1000D87000EB01100068C0085060206800F530
:100F2000D87000EB0110006800F00200D06020686B
:100F300000F5D87000EB0110406800F00F00106160
:100F4000206800F5D87000EB0110406800F47F4085
:100F5000000A9061206800F5D87000EB011040682D
:100F6000000C5061206800F5D87000EB011080681B
:100F70001870206800F5D87000EB0110806800F44C
:100F80007F40000A5870206800F5D87000EB01100F
:100F9000806800F47F00000C9870206800F5D8701D
:100FA00000EB01108068000ED870206800F5D87042
:100FB00000E02FE000EB0110C0681871206800F518
:100FC000D87000EB0110C06800F47F40000A58712F
:100FD000206800F5D87000EB0110C06800F47F00B5
:100FE000000C9871206800F5D87000EB0110C06803
:100FF000000ED87131B92068C06840F02000266822
:10100000F06005E02068006940F02000266830614B
:1010100000205BE7606A40F480206062012055E7B1
:101020002DE9F05F04460025206846692068D0F865
:101030000490206887682068D0F80CA02068D0F859
:1010400010B02068D0F8188006F00100002855D0B4
:1010500007F00100C0B101202168886007F002009C
:1010600018B1204600F0A3FA0EE007F0040010B11A
:1010700045F4006508E007F0080010B145F480551C
:1010800002E0204600F092FA07F48070C8B14FF4F5
:1010900080702168886007F4007018B1204600F065
:1010A00088FA0EE007F4806010B145F4005508E0BE
:1010B00007F4006010B145F4804502E0204600F0DE
:1010C00077FA07F48030C8B14FF480302168886027
:1010D00007F4003018B1204600F06DFA0EE007F476
:1010E000802010B145F4004508E007F4002010B15D
:1010F00045F4803502E0204600F05CFA06F0080076
:1011000038B10AF0100020B145F4007510202168B4
:10111000C86006F0040040B10AF0080028B10820B9
:101120002168C860204600F0B1F906F0020038B12D
:101130002068C06800F0030010B1204600F0A8F954
:1011400006F0400038B10BF0100020B145F4806586
:1011500010202168086106F0200040B10BF0080063
:1011600028B1082021680861204600F0BFF906F088
:10117000100038B12068006900F0030010B120466B
:1011800000F0B6F906F4003040B109F0100028B1C3
:10119000102021684860204600F0D8F906F480301D
:1011A00040B109F0080028B10820216848602046B5
:1011B00000F002FA06F4004088B309F0040078B3A6
:1011C00006F4807020B108F0010008B145F0010577
:1011D00006F4007020B108F0020008B145F00205E5
:1011E00006F4806020B108F0040008B145F0040561
:1011F00006F40060A0B108F0700088B108F070003B
:10120000402817D006DC10280BD020280CD030281E
:1012100019D10CE0502810D0602814D110E01DE046
:1012200019E045F008050FE045F010050CE045F029
:10123000200509E045F0400506E045F0800503E0A3
:1012400045F4807500E000BF00BF2068806920F091
:101250007000216888610420216848602DB1606AAF
:10126000284360622046FFF71DFEBDE8F09F70B581
:1012700004460CB9012070BD94F8200010B9204636
:1012800000F0B0F82068006840F0010021680860B4
:1012900000F006FB05460DE000F002FB401B0A28AB
:1012A00008D9606A40F400306062052084F82000AC
:1012B0000120E0E72068406800F001000028EBD042
:1012C0002068006820F002002168086000F0E8FA59
:1012D00005460DE000F0E4FA401B0A2808D9606AD0
:1012E00040F400306062052084F820000120C2E74D
:1012F0002068406800F002000028EBD1207E012821
:1013000006D12068006840F080002168086005E090
:101310002068006820F0800021680860607E012855
:1013200006D12068006840F040002168086005E0B0
:101330002068006820F0400021680860A07E012835
:1013400006D12068006840F020002168086005E0B0
:101350002068006820F0200021680860E07E0128F5
:1013600006D12068006820F010002168086005E0C0
:101370002068006840F0100021680860207F012884
:1013800006D12068006840F008002168086005E088
:101390002068006820F0080021680860607F01284C
:1013A00006D12068006840F004002168086005E06C
:1013B0002068006820F0040021680860D4E9020178
:1013C000084321690843616908436168491E08436D
:1013D0002168C86100206062012084F8200000209C
:1013E00049E7000010B586B00446142101A8FFF7B4
:1013F000A3F82349206888423FD100BF0020009015
:101400002048006840F000701E49086008460068E7
:1014100000F00070009000BF00BF00BF00200090EF
:1014200018481038006840F0080016491039086064
:101430000846006800F00800009000BF00BF0320CD
:1014400001900220029000200390032004900920C4
:10145000059001A90C4800F01BF900220521142079
:1014600000F0D8FA142000F0C5FA0022052115205A
:1014700000F0D0FA152000F0BDFA06B010BD000053
:101480000064004040380240000C024070470000F9
:1014900010B504461049206888420CD10F4BA3F1C7
:1014A0001C0200212046FFF7FEFC0D4841680B4856
:1014B0001C3888470FE00B49206888420BD1074B46
:1014C000A3F11C0200212046FFF7EDFC064841680D
:1014D00002481C38884710BD00640040604B002063
:1014E000CC00002000680040D400002070470000BD
:1014F00010B504461049206888420CD10F4BA3F167
:101500001C0201212046FFF7CEFC0D4841680B4824
:101510001C3888470FE00B49206888420BD1074BE5
:10152000A3F11C0201212046FFF7BDFC06484168DB
:1015300002481C38884710BD00640040844B0020DE
:10154000CC00002000680040D4000020704770B537
:10155000044694F82000012822D1022084F82000BB
:101560002068006820F001002168086000F098F908
:1015700005460DE000F094F9401B0A2808D9606A7E
:1015800040F400306062052084F82000012070BD26
:101590002068406800F001000028EBD16062F6E7A7
:1015A000606A40F4002060620120F0E770477047F5
:1015B0007047704770477047704770B50446A56D17
:1015C00000F06EF9064694F83500022808D0802015
:1015D000606500BF002084F8340000BF012070BDAA
:1015E0002068006820F016002168086020684069C3
:1015F00020F0800021684861206C08B9A06C28B1F7
:101600002068006820F008002168086020680068F1
:1016100020F001002168086010E000F041F9801B13
:1016200005280BD920206065032084F8350000BF11
:10163000002084F8340000BF0320D0E72068006851
:1016400000F001000028E8D194F85C103F208840A9
:10165000A860012084F8350000BF002084F8340021
:1016600000BF00BFBBE7014691F83500022803D058
:101670008020486501207047052081F83500086802
:10168000006820F001000A6810600020F3E7000005
:10169000F8B502460B460025002400200021E0E0BA
:1016A000012606FA01F51E6806EA0504AC4274D16B
:1016B0001E7906F00306012E04D01E7906F00306FB
:1016C000022E13D190684F000326BE40B0434F0056
:1016D000DE68BE4030439060506801268E40B043C3
:1016E0001E79C6F300168E40304350601E7906F016
:1016F0000306032E09D0D0684F000326BE40B04336
:101700004F009E68BE403043D0601E7906F003064D
:10171000022E13D1CF0802F1200656F827004E07FB
:10172000F70E0F26BE40B0434F07FF0E1E69BE40A6
:101730003043CF0802F1200646F8270010684F001A
:101740000326BE40B0431E7906F003064F00BE409C
:10175000304310605E6806F44036002E1DD000BF96
:1017600000260096414E366846F480463F4F3E6064
:101770003E46366806F48046009600BF00BF3C4EE9
:101780008F0856F827008E07370F0F26BE40B0434C
:10179000384EB24202D100262EE061E0364EB2420F
:1017A00001D1012628E0354EB24201D1022623E0C4
:1017B000334EB24201D103261EE0324EB24201D175
:1017C000042619E0304EB24201D1052614E02F4E16
:1017D000B24201D106260FE02D4EB24201D10726BA
:1017E0000AE02C4EB24201D1082605E02A4EB24250
:1017F00001D1092600E00A268F073F0FBE40304383
:101800001B4E8F0846F82700244E3068A0435E68C0
:1018100006F4801606B12043204E3060361D306835
:10182000A0435E6806F4001606B120431B4E361D29
:1018300030601A4E361F3068A0435E6806F40036EA
:1018400006B12043154E361F3060361F3068A04366
:101850005E6806F4803606B12043104E083E3060C4
:10186000491C1029FFF41CAFF8BD000044380240A9
:101870000838014000000240000402400008024015
:10188000000C024000100240001402400018024008
:10189000001C02400020024000240240083C01409D
:1018A00001480068704700003C00002003480068C1
:1018B0000349097808440149086070473C0000204A
:1018C0004400002010B50D48006840F400700B493A
:1018D00008600846006840F48060086008460068B8
:1018E00040F480700860032000F0D2F80F2000F070
:1018F00007F800F055F8002010BD0000003C024041
:10190000F0B587B004460026002700BF00200090F5
:101910001E48006840F001001C4908600846006845
:1019200000F00100009000BF00BF01A902A800F074
:10193000CBF900F001FA46001548B6FBF0F0471E5F
:1019400014481549086040F2E7311348C160476008
:10195000002101618160816100F0A6FC054695B916
:101960000D4800F0D5FC05466DB9192000F042F88D
:10197000102C07D200222146192000F04BF807480E
:10198000046000E00125284607B0F0BD443802405D
:1019900040420F00000001402802002040000020CB
:1019A00008B500BF002000901148006840F4804056
:1019B0000F4908600846006800F48040009000BFAE
:1019C00000BF00BF00200090081F006840F080505A
:1019D000091F08600846006800F08050009000BFB2
:1019E00000BF00220F21901E00F014F808BD000077
:1019F0004438024001460846002809DB00F01F0376
:101A000001229A4043099B0003F1E023C3F800211F
:101A100000BF70472DE9F05F80460D46164600274F
:101A200001F026FF074639462A46334601F00700F3
:101A3000C0F1070ABAF1040F02D94FF0040A01E01D
:101A4000C0F1070AD14600F1040ABAF1070F02D229
:101A50004FF0000A01E0A0F1030AD4464FF0010A5A
:101A60000AFA09FAAAF1010A0AEA020A0AFA0CFABF
:101A70004FF0010B0BFA0CFBABF1010B0BEA030B64
:101A80004AEA0B042146404601F0FAFEBDE8F09F09
:101A900000BF00F00702064B19684FF6FF0319401C
:101AA000044B0B4343EA0221014B196000BF70470E
:101AB0000CED00E00000FA0538B5002400BF00205E
:101AC00000901D48006840F080501B49086008469F
:101AD000006800F08050009000BF00BF012017494F
:101AE0000864FFF7DDFE044607E0FFF7D9FE001BA0
:101AF000B0F57A7F01D9032038BD1148406800F461
:101B00008030B0F5803FF0D101200C494864FFF7E8
:101B1000C7FE044607E0FFF7C3FE001BB0F57A7F5F
:101B200001D90320E8E70648406800F40030B0F52A
:101B3000003FF0D10020DFE74038024000000E42B5
:101B40000070004070B504460D460CB9012070BD10
:101B50005848006800F00F00A84209D255490D709E
:101B60000846006800F00F00A84201D00120EEE70F
:101B7000207800F0020002281DD1207800F0040037
:101B8000042805D14C48006840F4E0504A490860F8
:101B9000207800F00800082805D14748006840F484
:101BA0006040454908604448006820F0F000A168A2
:101BB000084341490860207800F00100A8B360683C
:101BC000012807D13C4808380068C0F34040B8B944
:101BD0000120BCE76068022802D06068032807D1B2
:101BE000354808380068C0F3406048B90120AEE7C6
:101BF000314808380068C0F3400008B90120A6E762
:101C00002D48006820F00300616808432A490860F5
:101C1000FFF746FE064609E0FFF742FE801B41F251
:101C20008831884202D9032091E707E02248006802
:101C300000F00C006168B0EB810FEDD11D48006829
:101C400000F00F00A84209D91A490D700846006833
:101C500000F00F00A84201D0012078E7207800F0C2
:101C60000400042807D11448006820F4E050E1681B
:101C7000084311490860207800F00800082808D1BE
:101C80000D48006820F46040216940EAC1000A491B
:101C9000086000F061F808490968C1F30311074AB8
:101CA000515CC8400649086006480068FFF728FEF6
:101CB00000204CE7003C0240083802404C7000080D
:101CC00048000020400000200F2202600D4A1268E8
:101CD00002F0030242600B4A126802F0F0028260D6
:101CE000084A126802F4E052C260064A126802F41E
:101CF0006042D2080261044A126802F00F020A60D0
:101D00007047000008380240003C0240014800686B
:101D1000704700004800002000B5FFF7F7FF0449B6
:101D20000968C1F38221034A515CC84000BD00002C
:101D3000083802405C70000800B5FFF7E7FF04496F
:101D40000968C1F34231034A515CC84000BD00003C
:101D5000083802405C7000082DE9F0470024002597
:101D60000026A1462548006800F00C0020B1042898
:101D700005D008283AD105E0DFF8849039E0DFF893
:101D8000849036E01D48001F006800F03F041B48A7
:101D9000001F006800F4800078B11A481749091F35
:101DA0000968C1F38811A0FB017001462246002397
:101DB0003846FEF7CBFA05460EE011480F49091FD9
:101DC0000968C1F38811A0FB017001462246002377
:101DD0003846FEF7BBFA05460848001F0068C0F306
:101DE0000140401C4600B5FBF6F902E0DFF8109018
:101DF00000BF00BF4846BDE8F08700000838024039
:101E00000024F400001BB700F8B504460CB901200B
:101E1000F8BD207800F00100002874D0F94800686F
:101E200000F00C0004280DD0F648006800F00C000B
:101E3000082813D1F348001F006800F48000B0F5B3
:101E4000800F0BD1EF4808380068C0F340400028ED
:101E500059D06068002856D10120D9E700BF6068DA
:101E6000B0F5803F08D1E7480838006840F480307A
:101E7000E449083908601EE06068B0F5A02F0DD174
:101E8000E0480838006840F48020DE4908390860DE
:101E90000846006840F4803008600CE0D9480838F3
:101EA000006820F48030D749083908600846006887
:101EB00020F48020086000BF606890B1FFF7F0FC5C
:101EC000054606E0FFF7ECFC401B642801D903201F
:101ED0009EE7CC4808380068C0F340400028F1D0A5
:101EE00011E0FFF7DDFC054606E0FFF7D9FC401BDB
:101EF000642801D903208BE7C24808380068C0F382
:101F000040400028F1D1207800F0020002285FD183
:101F1000BC48006800F00C0058B1BA48006800F0F6
:101F20000C0008281CD1B748001F006800F480008E
:101F3000B0B9B44808380068C0F3400020B1E06888
:101F4000012801D0012063E7AE480838006820F07E
:101F5000F800216940EAC100AA490839086037E061
:101F6000E06800B30120A8490860FFF799FC054626
:101F700006E0FFF795FC401B022801D9032047E744
:101F8000A04808380068C0F340000028F1D09D4800
:101F90000838006820F0F800216940EAC10099493A
:101FA0000839086014E0002097490860FFF778FCC2
:101FB000054606E0FFF774FC401B022801D9032008
:101FC00026E7904808380068C0F340000028F1D1A7
:101FD000207800F0080008282CD16069A8B1012001
:101FE0008A490860FFF75CFC054606E0FFF758FCED
:101FF000401B022801D903200AE782486C300068A0
:10200000C0F340000028F1D014E000207F490860B0
:10201000FFF746FC054606E0FFF742FC401B02289E
:1020200001D90320F4E677486C300068C0F3400023
:102030000028F1D1207800F00400042870D1002796
:1020400070483830006800F0805090B900BF002020
:1020500000906C483830006840F080506949383151
:1020600008600846006800F08050009000BF00BF84
:1020700001276748006800F48070B0B964480068C0
:1020800040F4807062490860FFF70AFC054606E0EC
:10209000FFF706FC401B022801D90320B8E65C4884
:1020A000006800F480700028F2D000BFA06801280A
:1020B00008D154486830006840F001005149683147
:1020C00008601DE0A06805280DD14E486830006802
:1020D00040F004004B49683108600846006840F051
:1020E000010008600CE047486830006820F00100FB
:1020F0004449683108600846006820F00400086020
:1021000000BFA068A8B1FFF7CBFB054609E0FFF7C9
:10211000C7FB401B41F28831884202D9032077E691
:1021200026E0384868300068C0F340000028EED050
:1021300013E0FFF7B5FB054608E0FFF7B1FB401BD6
:1021400041F28831884201D9032061E62D48683088
:102150000068C0F340000028EFD1012F07D12948C3
:102160003830006820F0805026493831086000BFC0
:10217000A069002845D02348006800F00C0008281A
:102180005DD0A069022845D100201F490866FFF7ED
:1021900087FB054606E0FFF783FB401B022801D9B9
:1021A000032035E6174808380068C0F3406000286F
:1021B000F1D1D4E907010843616A40EA81110122A3
:1021C000A06AC2EB500041EA00412C20005D41EAC8
:1021D00000600C49091F086001200B490866FFF7E1
:1021E0005FFB054606E0FFF75BFB401B022801D9B9
:1021F00003200DE6034808380068C0F3406000285B
:10220000F1D049E00838024000004742800E4742C2
:1022100000700040002021490866FFF741FB054699
:1022200006E0FFF73DFB401B022801D90320EFE544
:102230001B480068C0F340600028F2D12CE0A06980
:10224000012800D1E4E51648001D0668A0690128B0
:1022500020D006F48001E06981421BD106F03F01E5
:10226000206A814216D147F6C0703040616AB0EBF7
:10227000811F0FD106F440310122A06AC2EB500049
:10228000B1EB004F06D106F070612C20005DB1EB80
:10229000006F01D00120BBE50020B9E500004742F6
:1022A000003802407047704710B504460CB9012051
:1022B00010BD94F83D0028B9002084F83C00204669
:1022C00000F025F8022084F83D00211D206800F070
:1022D00085FF012084F8460000BF84F83E000121FC
:1022E0003F200155402001554120015500BF00BF4E
:1022F000012084F842004320015544200155452027
:10230000015500BF012084F83D000020D0E7704750
:10231000014691F83D00012801D0012070470220BC
:1023200081F83D000868C06840F001000B68D86083
:102330001A4B086898421BD00868B0F1804F17D03C
:10234000174B0868984213D0164B086898420FD074
:10235000154B086898420BD0144B0868984207D078
:10236000134B0868984203D0124B086898420CD16E
:102370000868806800F00702062A0CD00868006828
:1023800040F001000B68186005E00868006840F044
:1023900001000B6818600020C0E700000000014049
:1023A0000004004000080040000C00400004014010
:1023B0000040014000180040704710B504462068F6
:1023C0000069C0F34000D8B12068C068C0F3400085
:1023D000B0B16FF002002168086101202077206809
:1023E000806900F0030018B12046FFF7E5FF05E023
:1023F000204600F0ADF8204600F0ABF80020207732
:1024000020680069C0F38000D8B12068C068C0F3BC
:102410008000B0B16FF004002168086102202077CD
:102420002068806900F4407018B12046FFF7C4FFAF
:1024300005E0204600F08CF8204600F08AF80020E5
:10244000207720680069C0F3C000D8B12068C06858
:10245000C0F3C000B0B16FF008002168086104202B
:1024600020772068C06900F0030018B12046FFF70C
:10247000A3FF05E0204600F06BF8204600F069F865
:102480000020207720680069C0F30010D8B12068D0
:10249000C068C0F30010B0B16FF01000216808618F
:1024A000082020772068C06900F4407018B12046E9
:1024B000FFF782FF05E0204600F04AF8204600F0D2
:1024C00048F8002020772068006900F0010058B12A
:1024D0002068C06800F0010030B16FF00100216891
:1024E0000861204600F036F820680069C0F3C0108B
:1024F00058B12068C068C0F3C01030B16FF08000E0
:10250000216808612046FFF7CDFE20680069C0F30E
:10251000801058B12068C068C0F3801030B16FF0EF
:10252000400021680861204600F020F8206800691A
:10253000C0F3401058B12068C068C0F3401030B1FB
:102540006FF02000216808612046FFF7ACFE10BD47
:102550007047704710B5044603492068884201D18E
:10256000FFF7A4F910BD000000000140704770475C
:10257000704700002DE9F84F044620680568206880
:10258000C668206847694FF00009CA4605F00F0980
:10259000B9F1000F0AD105F0200038B106F0200093
:1025A00020B1204600F05AFFBDE8F88FB9F1000FC6
:1025B0007CD007F0010018B906F49070002875D09F
:1025C00005F0010030B106F4807018B1206C40F0C5
:1025D0000100206405F0040030B107F0010018B1DB
:1025E000206C40F00200206405F0020030B107F0DA
:1025F000010018B1206C40F00400206405F00800D0
:1026000048B106F0200010B907F0010018B1206CA5
:1026100040F008002064206C002846D005F020001F
:1026200028B106F0200010B1204600F017FF206806
:102630004069C0F3801A206C00F0080010B9BAF1AC
:10264000000F2DD0204600F0C3FE2068406900F046
:102650004000402820D100BF00BF2168143151E85C
:10266000001F21F040002168143141E80002002AD7
:10267000F3D100BFA06B50B17548A16B0865A06B8A
:10268000FEF7F1FF88B1A06B016D88470DE0204691
:10269000FFF76EFF09E009E02046FFF769FF04E05D
:1026A0002046FFF765FF002020647DE7206B0128AE
:1026B00076D105F01000002872D006F01000002836
:1026C000FAD000BF002000902068006800902068C9
:1026D0004068009000BF00BF2068406900F04000E3
:1026E00040285ED1A06B006840681FFA80F8B8F1FE
:1026F000000F54D0A08D404551DDA4F82E80A06B72
:10270000C069B0F5807F43D000BF00BF21680C31A5
:1027100051E8001F21F4807021680C3141E800026B
:10272000002AF3D100BF00BF00BF2168143151E877
:10273000001F21F001002168143141E80002002A45
:10274000F3D100BF00BF00BF2168143151E8001F62
:1027500021F040002168143141E80002002AF3D141
:1027600000BF202084F83E000020206300BF00BF8F
:1027700021680C3151E8001F21F0100021680C3154
:1027800041E80002002AF3D100BFA06BFEF715FF5D
:10279000A08DE28D801A81B22046FFF7E8FE03E7A4
:1027A00040E0A08DE18D401A1FFA80F8E08DC0B3A3
:1027B000B8F1000F35D000BF00BF21680C3151E8DF
:1027C000001F21F4907021680C3141E80002002ABA
:1027D000F3D100BF00BF00BF2168143151E8001FD2
:1027E00021F001002168143141E80002002AF3D1F0
:1027F00000BF202084F83E000020206300BF00BFFF
:1028000021680C3151E8001F21F0100021680C31C3
:1028100041E80002002AF3D100BF41462046FFF7FD
:10282000A6FEC1E605F0800030B106F0800018B1C8
:10283000204600F0CAFFB7E605F0400030B106F0D0
:10284000400018B1204600F0F9FDADE600BFABE650
:10285000BD33000810B504460CB9012010BDA069B5
:1028600000B100E000BF94F83D0028B9002084F8D2
:102870003C00204600F028F8242084F83D00206821
:10288000C06820F400502168C860204600F062FE55
:102890002068006920F49040216808612068406940
:1028A00020F02A00216848612068C06840F4005088
:1028B0002168C86000202064202084F83D0084F84E
:1028C0003E000020CAE7000010B586B0044614217F
:1028D00001A8FDF731FE1F492068884238D100BFAA
:1028E000002000901C48006840F020001A49086051
:1028F0000846006800F02000009000BF00BF00BF45
:102900000020009014481438006840F0400012493C
:10291000143908600846006800F04000009000BFCD
:1029200000BF4FF4844001900220029000200390E9
:10293000032004900820059001A90848FEF7A8FE8E
:10294000002205214720FFF765F84720FFF752F8DE
:1029500006B010BD00140140443802400018024087
:1029600070B504460D46164694F83E00202816D150
:1029700005B10EB9012070BD00BF94F83C000128DC
:1029800001D10220F7E7012084F83C0000BF0020BD
:10299000206332462946204600F0F2FEEBE7022093
:1029A000E9E7000010B50446294884424ED1294881
:1029B000007838B928480078782803D101202549C3
:1029C000087043E023480078012821D1224800788C
:1029D000302803DB20480078392807DD1E480078BE
:1029E0002B2803D01C4800782D2809D11A480178DB
:1029F0001A4802780078401C184B18701848815407
:102A0000164800780C2821D10220124908701DE0D8
:102A100010480078022814D10F4800786E2810D191
:102A2000002004E00E49095C0E4A1154401C0C2899
:102A3000F8DB00F0DBF90020064908700749087050
:102A400004E00020034908700449087010BD00002C
:102A5000E401002036000020340000203500002072
:102A6000B0010020A4010020704700BFFEE7000075
:102A700010B50E480E4908600920486000210C4836
:102A80008160C1604FF48031016109014161002121
:102A900001760121417600218176C1760177417767
:102AA000FEF7E5FB08B1FEF7B8F810BD0064004082
:102AB000BC01002010B5044A0021044801F016FEB4
:102AC0000349086010BD000028700008D9300008D4
:102AD0003800002008B500BF00200090244800689E
:102AE00040F04000224908600846006800F04000BD
:102AF000009000BF00BF00BF0020009008460068A3
:102B000040F0010008600846006800F001000090F5
:102B100000BF00BF00BF002000900846006840F0E2
:102B2000080008600846006800F00800009000BF38
:102B300000BF00BF002000900846006840F004007D
:102B400008600846006800F00400009000BF00BF65
:102B500000BF002000900846006840F08000086038
:102B60000846006800F08000009000BF00BF08BD6C
:102B70003038024010B50B480B4908604FF4E13083
:102B80004860002108488160C16001610C214161F9
:102B900000218161C161FFF75DFE08B1FEF73DF8DC
:102BA00010BD000000140140E4010020F0EE400AD6
:102BB000F5EEC00AF1EE10FA02DDB0EE600A7047E1
:102BC000B1EE600AFBE790ED001AB4EEC01AF1EE28
:102BD00010FA02D280ED000A08E090ED001AB4EE7F
:102BE000E01AF1EE10FA01DDC0ED000A704700BFF7
:102BF000FEE7000010B5FDF7F1FD12480088000A5D
:102C0000114908700F480078487010480088000A81
:102C100088700E480078C8700D480088000A087156
:102C20000B48007848710B480088000A88710948F1
:102C30000078C87108230A4699010748FDF7D8FFB4
:102C400010BD00001C000020E40000201E00002039
:102C50002000002022000020BC01002000BFFEE771
:102C600010B52DED068B04469FED530AF0EE408A19
:102C70009FED510AB0EE409A9FED4F0AF0EE409A58
:102C80009FED4D0AB0EE40AA94ED110AD4ED120A60
:102C900030EE600AB0EE408AB0EE480AFFF786FFD9
:102CA000F0EE40AA94ED010AB4EEEA0AF1EE10FA51
:102CB0000BD294ED120A84ED110A9FED3F0AB0EE9B
:102CC000408A9FED3D0AF0EE40AA94ED080A20EEFE
:102CD000080AF0EE408AD4ED050AB0EE001AB0EE14
:102CE000480A01EE600AD4ED060A30EE200AD4ED5F
:102CF000090A20EE200AB0EE409A206D70B994EDDA
:102D00000A0AD4ED050A78EE600A20EE200AD4ED16
:102D1000000A80EE201AF0EE419A0FE094ED070AC7
:102D2000D4ED040A30EE600AD4ED0A0A20EE200A3F
:102D3000D4ED000A80EE201AF0EE419A94ED110ACB
:102D4000D4ED030A30EE600AD4ED0B0A20EE200A1F
:102D5000B0EE40AA38EE890A30EE290A30EE0A0AAF
:102D600084ED070A94ED0D0AB5EEC00AF1EE10FAF3
:102D70000DD094ED0D1AF0EE410A94ED0D1AB1EE5E
:102D8000411AB0EE410A04F11C00FFF71CFF94ED5C
:102D9000120A84ED020A94ED110A84ED030A94EDFF
:102DA000070A84ED040A94ED050A84ED060A84ED11
:102DB000058ABDEC068B10BD0000000081ED080AFD
:102DC000C1ED090A81ED0A1AC1ED0B1A81ED005A15
:102DD00081ED0D2AC1ED0D2A81ED013AC1ED0E3ACA
:102DE00081ED0F4AC1ED104A086570472DE9F041A9
:102DF0002DED0C8B9FED830AF0EE408A9FED810A4A
:102E0000B0EE409A9FED7F0AF0EE409AB7EE000ACE
:102E1000B0EE408A7C4805780679077A9FED7B0AF8
:102E2000B0EE40AA01241EE07748005D00EE100AD3
:102E3000F8EE400AB0EE680A00EE880AF0EE408A2A
:102E400018EE100A04F074F841EC1C0B9FED700BA7
:102E500053EC102B03F078FE41EC1B0B03F0E8FB66
:102E600008EE100A641C042CDEDB2D2D05D1BFEE0C
:102E7000000A28EE800AF0EE408AB7EE000AB0EEB3
:102E8000408A05241EE06048005D00EE100AF8EE5E
:102E9000400AB0EE490A00EE880AB0EE409A18EEF9
:102EA000100A04F045F841EC1C0B9FED590B53EC54
:102EB000102B03F049FE41EC1B0B03F0B9FB08EEAD
:102EC000100A641C082CDEDB2D2E05D1BFEE000A93
:102ED00029EE000AB0EE409AB7EE000AB0EE408A42
:102EE00009241EE04848005D00EE100AF8EE400A92
:102EF000B0EE690A00EE880AF0EE409A18EE100A69
:102F000004F016F841EC1C0B9FED410B53EC102B19
:102F100003F01AFE41EC1B0B03F08AFB08EE100ACB
:102F2000641C0C2CDEDB2D2F05D1BFEE000A29EE30
:102F3000800AF0EE409A88EE8A0A10EE104A204687
:102F400003F0F6FF41EC1D0B9FED330B53EC102B00
:102F500003F0FAFD41EC1C0B9FED310B53EC102BF1
:102F600003F0F2FD41EC1B0B03F062FB2E490860FD
:102F700089EE0A0A10EE104A204603F0D9FF41EC10
:102F80001D0B9FED250B53EC102B03F0DDFD41ECE9
:102F90001C0B9FED230B53EC102B03F0D5FD41ECE4
:102FA0001B0B03F045FB2149086089EE8A0A10EEED
:102FB000104A204603F0BCFF41EC1D0B9FED160BA1
:102FC00053EC102B03F0C0FD41EC1C0B9FED140BD8
:102FD00053EC102B03F0B8FD41EC1B0B03F028FB66
:102FE00013490860084690ED001A1048D0ED000A19
:102FF0000D4890ED000A01F0DFF8BDEC0C8BBDE848
:10300000F081000000000000A4010020DB0F494017
:103010009A9999999999B93F0000000000003340AE
:103020000000000000004E400000002004000020CE
:10303000080000202DE9F04104460D4616461F46C3
:1030400000EE104AB8EEC00A184880ED000A00EE03
:10305000105AB8EEC00A164880ED000A00EE106A59
:10306000B8EEC00A134880ED000A00EE107AB8EE00
:10307000C00A114880ED000A10480C4991ED000A81
:1030800000F027F80E480A4991ED000A00F021F8F7
:103090000C48084991ED000A00F01BF80A4806495F
:1030A00091ED000A00F015F8BDE8F0810C00002059
:1030B0001000002014000020180000208C4B00207D
:1030C000E04B0020344C0020884C002080ED120A98
:1030D000704780ED110A704700BFFFF78BFD02209B
:1030E00001F0AEFAF9E710B54FF0E020006903F007
:1030F0003DF8012801D002F087FC10BD00B593B067
:10310000302107A8FDF718FA142102A8FDF714FAD8
:1031100000BF002001902648006840F080502449FC
:1031200008600846006800F08050019000BF00BFB2
:1031300000BF002001901F48006840F440401D4936
:1031400008600846006800F44040019000BF00BFDE
:10315000012007900004089002200D9041050E9177
:1031600006210F91B4211091022111910421129195
:1031700007A8FEF749FE08B1FDF74FFDFEF79CFCDE
:1031800008B1FDF74AFD0F200290022003900020B5
:1031900004904FF4A05005904FF480500690052104
:1031A00002A8FEF7CFFC08B1FDF737FD13B000BD54
:1031B00040380240007000400348006840F470004E
:1031C000014908607047000088ED00E010B5024832
:1031D000FFF7F3F810BD00002802002010B50268C8
:1031E000294B98420ED0B0F1804F0BD0274B98421C
:1031F00008D0274B984205D0264B984202D0264B48
:10320000984203D122F070024B681A431E4B984239
:1032100020D0B0F1804F1DD01C4B98421AD01C4BCF
:10322000984217D01B4B984214D01B4B984211D098
:103230001A4B98420ED01A4B98420BD0194B984219
:1032400008D0194B984205D0184B984202D0184B21
:10325000984203D122F44072CB681A4322F08003D3
:103260004C6943EA040202608B68C3620B688362A4
:10327000054B984202D0084B984201D10B69036379
:103280000123436110BD0000000001400004004024
:1032900000080040000C00400004014000400140D4
:1032A000004401400048014000180040001C00405C
:1032B000002000400FB410B5179C9DED130AB5EE29
:1032C000C00AF1EE10FA35DD012C06D0022C0FD029
:1032D000032C18D0042C2CD120E03348B0F9000086
:1032E00040F6C411884202DD08462F49088020E0DC
:1032F0002E48B0F9000040F6C411884202DD0846AD
:103300002A49088015E02A48B0F9000040F6C411A7
:10331000884202DD0846264908800AE02548B0F9BF
:10332000000040F6C411884202DD084621490880A9
:1033300000BF35E0012C06D0022C0FD0032C18D092
:10334000042C2CD120E01848B0F900001A4988421A
:1033500003DA4FF23C601449088020E01348B0F9CA
:1033600000001549884203DA4FF23C600F4908809B
:1033700015E00F48B0F900000F49884203DA4FF218
:103380003C600B4908800AE00A48B0F900000A498D
:10339000884203DA4FF23C600649088000BF00BF54
:1033A00010BC5DF814FB00001C0000201E00002073
:1033B00020000020220000203CF6FFFF70B50546EB
:1033C000AC6B0020E085E0842046FFF7D1F870BDAB
:1033D00000BF00BF02680C3252E8002F22F4907147
:1033E00002680C3242E80013002BF3D100BF00BF8B
:1033F00000BF0268143252E8002F22F00101026877
:10340000143242E80013002BF3D100BF016B0129F5
:103410000ED100BF00BF02680C3252E8002F22F02C
:10342000100102680C3242E80013002BF3D100BFF8
:10343000202180F83E1000210163704710B504463A
:103440002068C06820F040002168C860202084F80F
:103450003D002046FFF708FB002010BDF8B50446EC
:1034600094F83E00222873D1A068B0F5805F0CD19B
:10347000206950B90025A66A20684068C0F308009A
:103480003080A06A801CA06215E0A56A0026A068B2
:10349000B0F5805F03D0A06828B9206918B920680A
:1034A0004068287004E02068406800F07F002870C1
:1034B000A06A401CA062E08D401E80B2E08500281A
:1034C00044D12068C06820F020002168C8602068CE
:1034D000C06820F480702168C8602068406920F0CE
:1034E000010021684861202084F83E00206B0128FB
:1034F00026D10020206300BF00BF21680C3151E8B5
:10350000001F21F0100021680C3141E80002002A60
:10351000F3D100BF2068006800F0100010280AD125
:1035200000BF00200090206800680090206840687C
:10353000009000BF00BFA18D2046FFF718F802E001
:103540002046FFF72FFA0020F8BD01E00020FBE73E
:103550000220F9E72DE9F84F04462068006920F4BD
:103560004050E1680843216808612169A068084368
:1035700061690843E169084300902068C06849F226
:103580000C618843009908432168C860206840693D
:1035900020F44070A1690843216848617649206899
:1035A000884203D075492068884203D1FEF7C4FBE6
:1035B000814602E0FEF7B0FB8146E069B0F5004FBE
:1035C0006CD102206168A0FB015003461920A9FBC1
:1035D000007001462A463846FCF7B8FE6421B0FB6D
:1035E000F1F04FEA001A02206168A0FB01510B467E
:1035F0001920A9FB00712A463846FCF7A7FE83462E
:1036000002206168A0FB015003461920A9FB00714C
:103610002A463846FCF79AFE6421B0FBF1F000EB35
:10362000C00101EB0010ABEB8000322101EBC000C8
:103630006421B0FBF1F000F0F8000AEB400A022030
:103640006168A0FB015003461920A9FB00700146E8
:103650002A463846FCF77AFE834602206168A0FBC2
:10366000015003461920A9FB00712A463846FCF791
:103670006DFE6421B0FBF1F000EBC00101EB001026
:10368000ABEB8000322101EBC0006421B0FBF1F014
:1036900000F007005044216888606AE004206168F7
:1036A000A0FB015003461920A9FB007001462A46E1
:1036B0003846FCF74BFE824604206168A0FB0150AF
:1036C00003461920A9FB007001462A463846FCF73C
:1036D0003DFE6421B0FBF1F000EBC00101EB0010F6
:1036E000AAEB8000322101EB00106421B0FBF1F065
:1036F00000F0F00A04206168A0FB01700346192065
:10370000A9FB00513A462846FCF720FE6421B0FB95
:10371000F1F00AEB001A04206168A0FB01510B468E
:103720001920A9FB00712A463846FCF70FFE834694
:1037300004206168A0FB015003461920A9FB00701A
:1037400001462A463846FCF701FE6421B0FBF1F041
:1037500000EBC00101EB0010ABEB8000322101EB6C
:1037600000106421B0FBF1F000F00F00504421681C
:103770008860BDE8F88F000000100140001401408F
:1037800010B5034699629A85DA85002018642220D4
:1037900083F83E0000BF002083F83C0000BF18699A
:1037A00028B11868C06840F480701C68E060186830
:1037B000406940F001001C6860611868C06840F012
:1037C00020001C68E060002010BD014691F83D001B
:1037D000212828D18868B0F5805F0BD1086948B9E5
:1037E0000A6A1088C0F308000B685860086A801CD9
:1037F000086205E00B6A581C086218780B6858606C
:10380000C88C401E80B2C88458B90868C06820F0CF
:1038100080000B68D8600868C06840F040000B6802
:10382000D860002070470220FCE7000010B5024875
:10383000FEF7A0FE10BD0000E401002000BFFEE77F
:1038400003B401984100009850EAC12018BF042039
:103850004A0D18BF40F0010040F2FF72B2EB515F19
:1038600008BF40F00200012808BF052002B07047E1
:1038700002480068C0F30220704700000CED00E031
:1038800010B5002804DB0A07130E054A135406E09E
:103890000A07140E034A00F00F031B1FD45410BD77
:1038A00000E400E018ED00E0EFF305807047000051
:1038B00010B52F499FED2C1B2DED020B84B0059800
:1038C00020F000408842D8BF9DED040B2DDD294932
:1038D000884209D1049840B94FF00100FCF75BFE23
:1038E00000F03EFC06B010BD05DB9DED040B00F0C2
:1038F0002BFC06B010BD68469DED040B00F03CF8B3
:1039000010F0030004BF9DED021B9DED000B0CD0D9
:1039100001280ED09DED021B9DED000B022817D053
:10392000012000F079FB06B010BD00F041FA06B0AE
:1039300010BD9DED021B9DED000B012000F06CFB06
:1039400051EC100B02F068FE06B041EC100B10BDFC
:1039500000F02EFA51EC100B02F05EFE06B041ECC6
:10396000100B10BD0000000000000000000000006F
:10397000FB21E93F0000F07F2DE9F14F04462DEDDA
:10398000020B2DED088B8AB09FEDE70B80ED020B4B
:10399000139EE74826F0004585420ADC9DED120B98
:1039A000002084ED000B0AB0BDEC088B03B0BDE82D
:1039B000F08FE0489FEDE0AB9FEDE1BBA84247DD13
:1039C000E14F9FEDE39B9FEDE48B9DED120B53ECDC
:1039D0001A2B51EC100B002E1CDD03F0BFF941EC4B
:1039E000100BBD4208D053EC1B2B51EC100B03F015
:1039F000B5F9C4E900010BE053EC192B51EC100BA5
:103A000003F0ACF953EC182B03F0A8F9C4E900015A
:103A10000120C8E702F03EFE41EC100BBD4208D089
:103A200053EC1B2B51EC100B02F034FEC4E90001E7
:103A30000BE053EC192B51EC100B02F02BFE53EC66
:103A4000182B02F027FEC4E900014FF0FF30AAE76F
:103A5000C348A84279DB9DED120B51EC100B00F02E
:103A60009FFB41EC180B9FEDC00B53EC102B03F0A8
:103A70006BF89FEDBF1B53EC112B02F00BFE03F014
:103A800009F8074603F035F841EC190B53EC1A2BF3
:103A900003F05AF853EC182B03F054F941EC180BCF
:103AA00053EC1B2B51EC190B03F04EF8DFF8C8A2B6
:103AB00041EC100B4FEA15580125FA4453EC102B3A
:103AC00051EC180B03F04AF9032DC4E900013DD075
:103AD000C1F30A5005EB4511A8EB000011398142F2
:103AE00034DA0AEB051BB0EE48AA9BED000BF0EEB2
:103AF00068AA53EC102B51EC190B03F025F841EC9C
:103B00001B0B51EC1A0B53EC1B2B03F027F941EC68
:103B1000180B51EC1A0B53EC182B03F01FF953EC54
:103B20001B2B03F01BF99BED020B41EC1A0B53EC22
:103B3000102B51EC190B03F007F853EC1A2B03F080
:103B40000DF941EC100B6D1CB8E70EE0002EA8BF7C
:103B50003846BFF628AF94ED000B51EC100B02F085
:103B60005BFDC4E9000178421DE7C6F3130040F491
:103B7000801EC6F30A50A0F2F530471100F01F0571
:103B8000C5F12000DDF848B00890002006900790AD
:103B90000520EC467949002D07EB0002794408BF67
:103BA00051F8221009D051F8223001EB8201AB40CC
:103BB0004A68089922FA01F11943A1FB0E26A1FBDC
:103BC0000B131A449A4234BF0123002303EB060867
:103BD0000CEB8003D3E901A60E448E4234BF0121D1
:103BE000002192448A4411B1924502D903E09245E2
:103BF00001D2012100E00021C3E901A641444CF8B3
:103C00002010011EA0F10100C4DC029800F1005058
:103C1000850F0298DDE903678000DDF8148002F06B
:103C200068FF41EC1A0B304602F07AFF9FED541BFF
:103C300053EC112B02F088FF41EC1B0B384602F0CD
:103C40006FFF9FED511B53EC112B02F07DFF41ECF8
:103C5000180B404602F064FF9FED4D1B53EC112BF7
:103C600002F072FF41EC190B51EC180B53EC192BBD
:103C700002F010FD53EC1B2B02F00CFD53EC1A2B41
:103C800002F008FDCDE90801002008909DED080B29
:103C900053EC1A2B51EC100B03F060F853EC1B2B78
:103CA00003F05CF853EC182B03F058F853EC192B85
:103CB00003F048F89FED381B53EC112B02F044FF42
:103CC0009FED370B41EC180B53EC102B9DED080BBF
:103CD00051EC100B02F038FF53EC182B02F0DAFC19
:103CE0009FED310B41EC180B53EC102B9DED080BA5
:103CF00051EC100B02F028FF53EC182B02F0CAFC19
:103D000041EC100B139810F0004F06D06D4251ECAF
:103D1000100B02F081FC41EC100B284684ED000BE7
:103D200041E600000000000000000000000000006C
:103D3000FB21E93F7CD9024000004054FB21F93FC0
:103D40003163621A61B4D03DFB21F93F00000000ED
:103D50000000601A61B4D03D7370032E8A19A33B32
:103D6000FB2139410000000083C8C96D305FE43F8A
:103D7000000000000000E03FDA35000028350000B8
:103D8000000000000000103E000000000000103C99
:103D9000000000000000103A182D4454FB21F93DAA
:103DA0003326A611460B113C00000054FB21F93DBF
:103DB00010B52DED040B2DED088B82B0B0EE419ABD
:103DC000F0EE619A0B9820F000449FED4BABB4F1FC
:103DD000795F11DA9DED0A0B51EC100B02F05AFEDF
:103DE000002801BFB0EE4A0AF0EE6A0A02B0BDEC4C
:103DF000088B04BF04B010BD9DED0A0B53EC102BD3
:103E000051EC100B02F0A0FE41EC180B3C480621CF
:103E1000B0EE480AF0EE680A784400F081F853ECFE
:103E2000182B51EC100B02F08FFE9DED0A0B41ECAC
:103E30001B0B53EC192B51EC100B02F085FE41ECDF
:103E4000190B53EC1B2B51EC180B02F07DFE53ECBD
:103E5000192B02F083FF9FED2C0B41EC190B53EC57
:103E6000102B51EC180B02F06FFE41EC100B2848A0
:103E7000844210DA53EC192B51EC100B02F06EFF58
:103E800053EC1A2B02F05EFF41EC100B02B0BDECBC
:103E9000088B04B010BD1F48A042BCBF9FED1E1B85
:103EA0008DED001B06DBA4F50010019000200090B2
:103EB0009DED001B51EC100B53EC112B02F04EFF4B
:103EC0009DED000B41EC180B53EC102B51EC1A0B31
:103ED00002F044FF41EC1A0B53EC192B51EC180B78
:103EE00002F03CFF53EC1A2B02F02CFF41EC100BBC
:103EF000CCE7000000000000000000000000F03FE0
:103F00004C32000000000000000000000000E03F14
:103F10003333D33F0000E93F000000000000D23FF0
:103F200070B504462DED028B4D1E00EBC500B0EEC2
:103F3000408AF0EE608A90ED000B35F0060017D055
:103F400053EC182B51EC100B02F0FEFD41EC100B62
:103F50006D1E04EBC50090ED001B51EC100B53ECF3
:103F6000112B02F097FB41EC100B35F00600E7D166
:103F7000022D36D0042D1CD0062D1CBFBDEC028BAB
:103F800070BD53EC182B51EC100B02F0DDFD94EDDD
:103F90000A1B53EC112B02F07DFB53EC182B02F0A3
:103FA000D3FD94ED081B53EC112B02F073FB41EC95
:103FB000100B53EC182B51EC100B02F0C5FD94EDD7
:103FC000061B53EC112B02F065FB53EC182B02F08F
:103FD000BBFD94ED040B53EC102B02F05BFB41ECAA
:103FE000100B53EC182B51EC100B02F0ADFD94EDBF
:103FF000021B53EC112B02F04DFB53EC182B02F07B
:10400000A3FD94ED001B53EC112B02F043FBBDEC20
:10401000028B41EC100B70BD31B504462DED040B45
:104020002DED0A8BB0EE41BAF0EE61BA0B989DED22
:104030000A0B20F00040B0F1795F0DDA51EC100B63
:10404000FFF7FEFB042808BF00F09AF89DED0A0B6D
:10405000BDEC0A8B05B030BD53EC102B51EC100BAE
:1040600002F072FD41EC180B9DED0A0B53EC182B7E
:1040700051EC100B02F068FD41EC190B2C48B0EE2E
:10408000480AF0EE680A05217844FFF749FF9FEDE2
:104090002ACBB0EE40AAF0EE60AA9CB353EC1C2BE6
:1040A00051EC190B02F050FD41EC1C0B53EC1A2B98
:1040B00051EC190B02F048FD9FED210B41EC190B5F
:1040C00053EC102B51EC1B0B02F03EFD53EC192B63
:1040D00002F044FE53EC182B02F036FD53EC1B2B80
:1040E00002F03CFE53EC1C2B02F038FE9DED0A1B47
:1040F00053EC112B02F026FEBDEC0A8B05B041EC0F
:10410000100B30BDFFE753EC1A2B51EC180B02F0EB
:104110001BFD53EC1C2B02F0BDFA53EC192B02F0E3
:1041200013FD9DED0A1B53EC112B02F0B3FAE3E7EC
:10413000D430000000000000495555555555C5BF05
:10414000000000000000E03F10B553EC102B51ECD4
:10415000100B02F09FFA41EC100B10BD00000000A4
:104160009FED050B10B553EC102B51EC100B02F02A
:1041700039FB41EC100B10BD0000000000000000F6
:104180009FED050B10B553EC102B51EC100B02F00A
:10419000DBFC41EC100B10BD000000000000001023
:1041A00082B0CDE9000121F0004001909DED000BAF
:1041B00002B051EC100B704710B52DED108B8AB08A
:1041C000B0EE408AF0EE608AB0EE419A9FEDF90AB7
:1041D00010EE104A204602F0ABFECDE9020119EEC6
:1041E000100A02F0A5FE41EC1C0B9FEDF30B53EC03
:1041F000102B02F0A9FC41EC1A0B9FEDF10BFFF71D
:1042000057FBB0EE40DAF0EE60DA18EE900A02F0FA
:104210008FFE41EC1E0B53EC1D2B02F095FC41EC84
:104220001C0B9FEDE70BFFF743FBB0EE40DAF0EE1F
:1042300060DAB1EE480A10EE100A02F079FE41ECA5
:104240001E0B53EC1D2B02F07FFC53EC1C2BCDE915
:1042500000019DED000B51EC100B02F07FFD41ECD5
:104260001B0B53EC1A2B02F015FA41EC1F0B9DEDC2
:10427000020B53EC102B02F0B5FA9FEDD30B53EC6D
:10428000102BCDE904019DED040B51EC100B02F055
:104290005BFC9FEDCF0B53EC102BCDE906019DEDA0
:1042A000060B51EC100B02F04FFCCDE908019DED1F
:1042B000080B51EC100B02F0BBF9C749086020460F
:1042C00002F036FECDE9020119EE100A02F030FECE
:1042D00041EC1C0B9FEDB80B53EC102B02F034FC9F
:1042E00041EC1A0B9FEDB60BFFF7E2FAB0EE40DAA5
:1042F000F0EE60DA18EE900A02F01AFE41EC1E0BA6
:1043000053EC1D2B02F020FC41EC1C0B9FEDAC0B81
:10431000FFF7CEFAB0EE40DAF0EE60DA18EE100AEF
:1043200002F006FE41EC1E0B53EC1D2B02F00CFCC0
:1043300041EC1F0B53EC1C2B02F010FD41EC1B0B4E
:1043400053EC1A2B02F0A6F9CDE900019DED020B0A
:1043500053EC102B9DED000B51EC100B02F042FAC8
:104360009FED990B53EC102BCDE904019DED040B4F
:1043700051EC100B02F0E8FB9FED950B53EC102B6A
:10438000CDE906019DED060B51EC100B02F0DCFBB4
:10439000CDE908019DED080B51EC100B02F048F936
:1043A0008E490860204602F0C3FD41EC1A0B19EE5D
:1043B000100A02F0BDFD41EC1C0B9FED7F0B53EC8E
:1043C000102B02F0C1FB9FED7E0BCDE90401FFF73E
:1043D0006FFAB0EE40DAF0EE60DA18EE900A02F012
:1043E000A7FD41EC1E0B53EC1D2B02F0ADFB9FED26
:1043F000740BCDE90001FFF75BFAB0EE40DAF0EEA6
:1044000060DA18EE100A02F093FD41EC1E0B53EC3B
:104410001D2B02F099FB41EC1C0B9DED000B53ECA6
:10442000102B02F037F9CDE902019DED040B53EC9E
:10443000102B9DED020B51EC100B02F02BF941EC0F
:104440001B0B53EC1A2B02F0CDF941EC1F0B9FED27
:104450005E0B53EC102B02F077FB9FED5D0B53ECE2
:10446000102BCDE906019DED060B51EC100B02F06F
:104470006BFBCDE908019DED080B51EC100B02F030
:10448000D7F857490860204602F052FD41EC1A0B5C
:1044900019EE100A02F04CFD41EC1B0B9FED460B90
:1044A00053EC102B02F050FB9FED450BCDE90201C0
:1044B000FFF7FEF9B0EE40DAF0EE60DA18EE900A9F
:1044C00002F036FD41EC1E0B53EC1D2B02F03CFBC1
:1044D00041EC1B0B9FED3A0BFFF7EAF9B0EE40DA27
:1044E000F0EE60DAB1EE480A10EE100A02F020FD9C
:1044F00041EC1E0B53EC1D2B02F026FB41EC1C0B78
:1045000053EC1B2B02F0C6F8CDE900019DED020B28
:1045100053EC102B9DED000B51EC100B02F0BAF890
:1045200041EC1F0B53EC1A2B02F05CF99FED260BAC
:1045300053EC102BCDE904019DED040B51EC100B55
:1045400002F002FB9FED220B53EC102BCDE906018C
:104550009DED060B51EC100B02F0F6FACDE90801C7
:104560009DED080B51EC100B02F062F81D4908603C
:10457000084690ED000ABDEEC00A10EE103A16484B
:1045800090ED000ABDEEC00A10EE102A144890ED1E
:10459000000ABDEEC00A10EE101A104890ED000A95
:1045A000BDEEC00A10EE100AFEF744FD0AB0BDECE5
:1045B000108B10BDDB0F4940000000000000E03F01
:1045C000FF7E4354FB21E93F000000000000334020
:1045D0000000000000004E40140000200C000020ED
:1045E0001000002018000020FDF76CF9FEF786FD92
:1045F000FEF770FAFEF73CFAFEF7BCFAFCF756F845
:1046000040F2D24000F01CF809490A48FCF756FA7B
:10461000FCF728F8012208490848FEF7A1F900F044
:104620001FF8FEF747FA00F031F800BFFEE7000080
:10463000F90A0008BC01002034000020E401002039
:1046400070B50546FFF730F910B16FF0050404E0CE
:10465000002415B1284600F0FBFF204670BD000085
:1046600010B5FFF721F910B16FF0050409E0064815
:10467000006820B9012004490860002401E04FF0DF
:10468000FF34204610BD00009C00002070B5FFF7ED
:104690000BF910B16FF005041FE011480068012804
:1046A00019D100BF801F0021002804DB0A07130E68
:1046B0000C4A135406E00A07150E0B4A00F00F03CC
:1046C0001B1FD55400BF00BF02200549086001F040
:1046D0003BF8002401E04FF0FF34204670BD00009D
:1046E0009C00002000E400E018ED00E02DE9FF4709
:1046F00080468946144600200390FFF7D5F800282D
:104700004ED1B8F1000F4BD0802618258246471EA7
:1047100044B3206808B1D4F800A0A06900B1A5692D
:104720002DB1382D03D8207900F0010018B10020F8
:1047300004B0BDE8F087606908B160698608A068C8
:1047400040B1E0685C2805D3206918B1606908B100
:10475000012708E0A06830B9E06820B9206910B9E5
:10476000002700E00027012F0CD12169A0684B46EB
:104770003246CDE9005102905146404601F098FC86
:1047800003900DE067B903A8B2B24B465146CDE99C
:104790000050404601F05AFC012801D0002003904F
:1047A0000398C5E72DE9F04105460E46164807680F
:1047B00016480068001D00F0C3FD681C38B936B10A
:1047C00012480168091D124800F010FE1AE07C1919
:1047D0000E4800684460BC4207D20C480168091DBD
:1047E0000C48006800F0E8FD0CE008480168091D6D
:1047F0000948006800F0E0FD08480068844201D2E2
:1048000006480460BDE8F081600000204C000020F4
:104810006007002054000020500000207C00002091
:1048200010B5044600F0EEFD24480068401C234902
:1048300008602348006840B92148046008460068C1
:1048400001280DD100F0FCF90AE01E48006838B9D3
:104850001B480068C06AE16A884201D818480460B1
:1048600019480068401C18490860084600686064E0
:104870001649E06A0968884202D91449E06A08606A
:10488000E16A01EB8101124A02EB8100211D00F077
:10489000ADFD00F0E1FD0B48006868B10848006814
:1048A000C06AE16A884207D24FF080500949086027
:1048B000BFF34F8FBFF36F8F10BD00005C0000206F
:1048C0004C000020680000207800002064000020D8
:1048D000B002002004ED00E008B500F093FD12489E
:1048E0000068E8B9114800F057FD114800F054FD88
:1048F0000E48104908600E480F49086000200F4B11
:104900000F4A102100900A2001F098F8064908602B
:104910000846006820B10BA10348006800F05CFE67
:1049200000F09AFD08BD00009000002074070020F0
:1049300088070020880000208C0000209C070020B1
:10494000EC070020546D72510000000010B516E015
:1049500000F058FD0C48C068C468201D00F0F0FC51
:104960000A480068401E0949086009480068401E5E
:104970000749086000F070FD204600F05FF8044829
:1049800000680028E4D110BD4C0700205C00002026
:104990005800002070B504460D46206C70B1216CA3
:1049A000E0680144E160D4E90210884201D3216843
:1049B000E1602846226CE168FBF73FFD70BD2DE900
:1049C000F04104460F4615464FF00008A66B206CD8
:1049D00048B9206800282CD1A06801F07FFC8046EF
:1049E0000020A06025E07DB93946226C6068FBF7A5
:1049F00024FD216C606808446060D4E901018842AC
:104A000017D32068606014E03946226CE068FBF739
:104A100014FD216CE068411AE1602168E068884279
:104A200003D2216CA068411AE160022D01D106B1C8
:104A3000761E701CA0634046BDE8F08110B50446A8
:104A400094F8590030B9206B00F024FD204600F0A6
:104A500021FD1AE094F85900012803D1204600F006
:104A600019FD12E094F85900022801D1012000E05C
:104A7000002050B900BF502080F31188BFF34F8F42
:104A8000BFF36F8F00BF00BFFEE710BD0146084AAD
:104A9000126812680AB9012200E000220A600A685E
:104AA00022B9034A1268D268106800E000207047FB
:104AB0008800002030B54FF47053174800F0070409
:104AC0002CB1C01D20F00700134C041B1B1B024619
:104AD000124C22600024114D6C60D018083820F070
:104AE00007000F4C206000240D4D2D686C600C4DAC
:104AF0002D682C601146441A4C60094C24680C60E7
:104B0000084D4C682C60084D4C682C604FF00044F8
:104B1000064D2C6030BD0000440F0020A000002096
:104B2000A8000020B0000020AC000020BC00002045
:104B300000BFFFF70BFF064800680128F9D94FF0C6
:104B4000805004490860BFF34F8FBFF36F8FF0E7C9
:104B5000B002002004ED00E02DE9F04106460D46CC
:104B600017469846069C0DB9246000E02760E6636E
:104B700025640121204600F0D1FF84F84C80BDE877
:104B8000F0812DE9F05F82460E4690469B460A9FD3
:104B90000C9C4FEA8801A522206BFBF7C5FCA8F10D
:104BA0000100216B01EB800929F0070909F00700DA
:104BB00008B9012000E0002050B900BF502080F368
:104BC0001188BFF34F8FBFF36F8F00BF00BFFEE7A9
:104BD00086B1002507E0715D04F134004155705D38
:104BE00000B902E06D1C102DF5D300BF0021432059
:104BF000015502E0002084F83400382F00D3372715
:104C0000E762E76400202065201D00F0D2FB04F17C
:104C1000180000F0CEFB2461C7F13800A061646287
:104C20000020606584F858005A465146484600F016
:104C300071FB20600B9808B10B980460BDE8F09FF1
:104C400010B5002407E004EB84010F4A02EB810059
:104C500000F0A2FB641C382CF5D30C4800F09CFB40
:104C60000B4800F099FB0B4800F096FB0A4800F057
:104C700093FB0A4800F090FB044809490860044887
:104C80000849086010BD0000B00200201007002095
:104C900024070020380700204C0700206007002070
:104CA000500000205400002010B50146164800E0D6
:104CB000006803688B42FBD30246436813448B426F
:104CC00004D143684C682344436001460A464B685C
:104CD00013440468A34211D10C4C03682468A34216
:104CE00008D04B680468646823444B6003681B6801
:104CF0000B6005E0054B1B680B6001E003680B606F
:104D0000884200D0016010BDA0000020A800002053
:104D10002DE9F04104460D4616461F464FF00008A7
:104D200065602461B5420CD8F01BA169884202D3AA
:104D30004FF0010811E0211D0948006800F03CFB1C
:104D40000BE0BE4204D2BD4202D34FF0010804E0A2
:104D5000211D0448006800F02FFB4046BDE8F081AB
:104D60008C0000208800002070B5054600F04AFB4A
:104D7000A86B08B9012400E0002400F06DFB204678
:104D800070BD70B5054600F03DFBA86BE96B88422D
:104D900001D1012400E0002400F05EFB204670BD3C
:104DA000F8B505460F461A480068C068C468201D5B
:104DB00000F0C6FA94F8280000F00400E8B1A069F9
:104DC00041192B463A462046FFF7A2FFD8B10020F2
:104DD00003462A4601460090204601F0DBFB0646CA
:104DE00056B900BF502080F31188BFF34F8FBFF337
:104DF0006F8F00BF00BFFEE705E094F8280020F0A9
:104E0000010084F828002046216A8847F8BD000088
:104E100088000020F0B587B0A0E00398002811DAE0
:104E200004AE56B900BF502080F31188BFF34F8FF6
:104E3000BFF36F8F00BF00BFFEE7D6E90020B16867
:104E4000904700BF03980028E6DB059C606908B91D
:104E5000012000E0002010B9201D00F071FA02A826
:104E600000F0DEF8054603980A2875D2DFE800F066
:104E700009050739416306083A4200BF00BF00BF79
:104E800000BF94F8280040F0010084F8280004983E
:104E9000A269811803462A462046FFF739FFF8B178
:104EA0002046216A884794F8280000F00400B8B131
:104EB000002000900498A16942180023194620465A
:104EC00001F068FB074657B900BF502080F31188F6
:104ED000BFF34F8FBFF36F8F00BF00BFFEE700BF70
:104EE0003BE000BF94F8280020F0010084F828007F
:104EF00033E000BF94F8280040F0010084F8280057
:104F00000498A061A06908B1012000E0002050B918
:104F100000BF502080F31188BFF34F8FBFF36F8F16
:104F200000BF00BFFEE7A06941192B462A46204674
:104F3000FFF7EEFE11E094F8280000F0020018B927
:104F4000204600F0A7FA05E094F8280020F00100C0
:104F500084F8280001E0FFE700BF00BF002203A99A
:104F60000448006800F078FF00287FF456AF07B0CF
:104F7000F0BD000090000020F8B505460C4600F09A
:104F80003FFC684600F04CF80646009820BB44B948
:104F9000B54206D801F040FA31462846FFF700FF37
:104FA0001CE03CB10E480068006808B9012000E030
:104FB00000200446A91B22460A48006800F022FB94
:104FC00001F02AFA50B94FF0805007490860BFF34A
:104FD0004F8FBFF36F8F01E001F01EFAF8BD0000A4
:104FE0008C0000209000002004ED00E00A490968D0
:104FF000096809B9012100E0002121B14FF0FF311A
:10500000064A116006E004490968C968C868034A8D
:105010004168116070470000500000207C000020B3
:1050200070B5044601F0B2F80546074800688542AD
:1050300004D200F00BF80120206001E00020206085
:1050400001480560284670BD980000202DE9F8430E
:1050500034E025480068C068056823480068C068D7
:10506000C468201D00F06CF92046216A884794F836
:10507000280000F0040008B3A0694619AE4207D921
:1050800066602461211D1848006800F095F915E05C
:10509000002003462A4601460090204601F07AFA95
:1050A000074657B900BF502080F31188BFF34F8FD8
:1050B000BFF36F8F00BF00BFFEE700BF0A48006864
:1050C000006808B9012000E000200028C1D006488F
:1050D000D0F8008005480068034908600348C0F81C
:1050E0000080BDE8F8830000880000208C000020CC
:1050F0000E480068401C08B9012000E0002050B9AB
:1051000000BF502080F31188BFF34F8FBFF36F8F24
:1051100000BF00BFFEE700BF502080F31188BFF33F
:105120004F8FBFF36F8F00BF00BFFEE7C0000020AE
:1051300008B500BF6846FFF7A9FC04462046009961
:10514000FFF71AFFFFF766FEF4E770B5044600F0BC
:1051500059F994F9455010E0606A08B9012000E05F
:10516000002038B904F1240001F00AF918B100F068
:10517000A9FA00E003E0681E45B2002DECDC00BF98
:10518000FF2084F8450000F067F900F03BF994F93E
:10519000445010E0206908B9012000E0002048B91F
:1051A00004F1100001F0ECF808B100F08BFA681E71
:1051B00045B200E001E0002DECDC00BFFF2084F8E8
:1051C000440000F049F970BD2DE9F04104464FF06C
:1051D000000800F015FB4948006808B9FFF76AFCB1
:1051E000474800682040002870D1D4B1083404F04A
:1051F0000700B0B104F00700C0F10800044404F057
:10520000070008B9012000E0002050B900BF50207D
:1052100080F31188BFF34F8FBFF36F8F00BF00BFC4
:10522000FEE7002C52D03748006884424ED8364EF4
:105230003046056801E02E462D686868A04202D21B
:1052400028680028F7D12D48006885423ED0306894
:1052500000F10808286830606868001B102819D918
:105260002F1907F0070008B9012000E0002050B90D
:1052700000BF502080F31188BFF34F8FBFF36F8FB3
:1052800000BF00BFFEE76868001B78606C603846AE
:10529000FFF70AFD1B4968680968081A1949086080
:1052A0000846006819490968884203D21548006811
:1052B0001649086012496868096808436860002058
:1052C000286013480068401C1149086001F0A4F8E8
:1052D00008F0070008B9012000E0002050B900BF25
:1052E000502080F31188BFF34F8FBFF36F8F00BF43
:1052F00000BFFEE74046BDE8F0810000A8000020A6
:10530000BC000020AC000020A0000020B000002065
:10531000B4000020001F4FF080730360001F21F0D5
:1053200001030360001F054B036014380260001F77
:105330006FF002030360203870470000F15000084E
:1053400001460A69D1E901309860D1E9010358604A
:105350005068884201D18868506000200861106858
:10536000401E106010687047034B0360034B0B60D6
:1053700080231360704700008C080020E80800209C
:10538000034B0360034B0B604FF480731360704753
:10539000E80A0020440B002000F1080141604FF0B2
:1053A000FF31816000F10801C160016100210160ED
:1053B000704700210161704710B502460B685C1C04
:1053C0000CB9106907E002F1080000E04068446889
:1053D00024689C42FAD944684C604C68A16088609B
:1053E00041600A611468641C146010BD42684A6020
:1053F00093688B60936859609160086103685B1CD7
:105400000360704700BF502080F31188BFF34F8FB7
:10541000BFF36F8F00BF0E480068401C0C49086046
:1054200008460068012812D10A480068C0B208B9CD
:10543000012000E0002050B900BF502080F3118807
:10544000BFF34F8FBFF36F8F00BF00BFFEE7704702
:10545000C000002004ED00E00D48006850B900BF16
:10546000502080F31188BFF34F8FBFF36F8F00BFC1
:1054700000BFFEE706480068401E05490860084670
:10548000006820B9002080F3118800BF00BF70477A
:10549000C000002070B506463546002E44D0083DB9
:1054A0002C46224960680968084008B1012000E0E4
:1054B000002050B900BF502080F31188BFF34F8FF8
:1054C000BFF36F8F00BF00BFFEE7206808B901205F
:1054D00000E0002050B900BF502080F31188BFF3D6
:1054E0004F8FBFF36F8F00BF00BFFEE70F496068AB
:1054F00009680840C0B12068B0B90C496068096803
:105500008843606000F07CF90949606809680844D4
:10551000074908602046FFF7C7FB06480068401CA3
:105520000449086000F078FF70BD0000BC00002056
:10553000AC000020B800002000204FF0E0210861FE
:105540008861064800684FF47A71B0FBF1F0401EA4
:105550004FF0E021486107200861704748000020B3
:1055600070B5FAF7CFFE0446102C16D304F1E020F4
:1055700090F8F05315480078854201DB012000E0E7
:10558000002050B900BF502080F31188BFF34F8F27
:10559000BFF36F8F00BF00BFFEE70D48006800F447
:1055A000E0600C490968884201D8012000E0002031
:1055B00050B900BF502080F31188BFF34F8FBFF365
:1055C0006F8F00BF00BFFEE770BD0000C400002069
:1055D0000CED00E0C8000020024600200BE0084B64
:1055E00053F8303033B9064B43F8301003EBC003A7
:1055F0005A6002E0401C0828F1D300BF7047000049
:10560000700200202DE9F04105460E4617462C4653
:10561000FFF7F8FE94F94400401C10B9002084F80C
:10562000440094F94500401C10B9002084F845005E
:10563000FFF712FFA06B28B93A46314604F1240067
:1056400000F062F82046FFF780FDBDE8F081000021
:1056500070B504460025D4B11248006808B901208D
:1056600000E0002050B900BF502080F31188BFF344
:105670004F8FBFF36F8F00BF00BFFEE700F0C0F891
:1056800000212046FFF78EF800F0C6FE05463DB922
:105690004FF0805004490860BFF34F8FBFF36F8F06
:1056A00070BD00008400002004ED00E0034909689B
:1056B00001600349096841607047000074000020E0
:1056C0006000002001200149086070477000002040
:1056D00070B504460D4654B900BF502080F31188C0
:1056E000BFF34F8FBFF36F8F00BF00BFFEE70548CA
:1056F000016818312046FFF75FFE01212846FFF7B9
:1057000051F870BD4C00002070B505460E46144699
:1057100055B900BF502080F31188BFF34F8FBFF3FE
:105720006F8F00BF00BFFEE70648016818312846AA
:10573000FFF75CFE0CB14FF0FF3621463046FFF715
:1057400031F870BD4C00002010B586B000200590E7
:10575000049003AA04A905A8FFF706FE0022DDE9CC
:1057600004101346CDE9002102901EA11F48039AA0
:1057700000F09EFC1E4908600846006808B101243C
:1057800000E00024012C02D100F0C8FE0446012CE8
:1057900015D100BF502080F31188BFF34F8FBFF3A6
:1057A0006F8F00BF4FF0FF3012490860012012498F
:1057B000086000201149086000F072F810E0601CD9
:1057C00008B1012000E0002050B900BF502080F354
:1057D0001188BFF34F8FBFF36F8F00BF00BFFEE78D
:1057E00006B010BD49444C4500000000314B000894
:1057F000800000207C000020680000206000002065
:1058000002480068401C014908607047840000207D
:105810001E48006818B101201D49086034E00020CE
:105820001B4908601B4801680CE051B900BF5020BB
:1058300080F31188BFF34F8FBFF36F8F00BF00BF9E
:10584000FEE7491E01EB8100134A52F8200008B917
:10585000012000E000200028E7D101EB81020E4B7F
:1058600003EB820042685268426000F1080243681C
:10587000934202D14268526842604268D268074B44
:105880001A600448016000BF7047000084000020D7
:105890007000002064000020B00200204C000020B6
:1058A0001CB5524800685249884201D0012000E0EE
:1058B000002050B900BF502080F31188BFF34F8FF4
:1058C000BFF36F8F00BF00BFFEE74848006848493C
:1058D000491E884201D0012000E0002050B900BFDD
:1058E000502080F31188BFF34F8FBFF36F8F00BF3D
:1058F00000BFFEE73F49084600780190FF200A46B6
:1059000010700846007800909DF8000000F0F0004C
:105910009DF80020904201D1012000E0002050B904
:1059200000BF502080F31188BFF34F8FBFF36F8FFC
:1059300000BF00BFFEE79DF8000000F050002E4AB7
:10594000107007202D4A106009E02C480068401EA6
:105950002A4A10609DF800004006000E00909DF855
:10596000000000F080008028EFD024480068C0F1DB
:105970000700042801D1012000E0002050B900BF39
:10598000502080F31188BFF34F8FBFF36F8F00BF9C
:1059900000BFFEE7194800680002184A1060104670
:1059A000008800F4E0601060124A019810700F48FF
:1059B0002030006840F470000C492031086008462F
:1059C000006840F070400860FFF7B6FD00200C4909
:1059D0000860FAF75FFC0B48006840F04040094956
:1059E0000860FAF743FC00201CBD000000ED00E059
:1059F00071C20F4100E400E0C4000020C800002094
:105A0000C000002034EF00E010B500BF502080F34C
:105A10001188BFF34F8FBFF36F8F00BF00F0BCFB47
:105A200018B14FF080500449086000BF002080F397
:105A3000118800BF10BD000004ED00E02DE9F8431F
:105A400080460E4617461D46DDF82090B8F1000F3F
:105A500001D0012000E0002050B900BF502080F3A9
:105A60001188BFF34F8FBFF36F8F00BF00BFFEE7FA
:105A70000DB1012000E0002050B900BF502080F39C
:105A80001188BFF34F8FBFF36F8F00BF00BFFEE7DA
:105A900007B10EB1012000E0002050B900BF502036
:105AA00080F31188BFF34F8FBFF36F8F00BF00BF2C
:105AB000FEE707B90EB9012000E0002050B900BF91
:105AC000502080F31188BFF34F8FBFF36F8F00BF5B
:105AD00000BFFEE7502000900098502801D101201F
